:020000040000FA
:0600000002011A0221BBFF
:03002B0002274069
:030033000227227F
:0300530002222E58
:03006B000226F971
:10008300022027E5C754F84401F5C779012200008F
:100093000080FB120086B90003020104E4791B7897
:1000A30002B800028004F709D8FCE4791D7802B88D
:1000B30000028004F709D8FCE4900281789E790E4F
:1000C3008002F0A3D8FCD9FA781A90014A7A01BACF
:1000D30000028007E493A3F608DAF97A1E7B1090F6
:1000E300014B780C79028015E493A3AD82AE838A29
:1000F300828B83F0A3AA82AB838D828E83D8E9D9C6
:10010300E77582147583DD740312012C7582917572
:100113008300740012012C75D00075813F7518811E
:10012300751902759F00020096C09FF59FE473D076
:100133009F22D083D082C09FE493C0E0740193C018
:10014300E0740293F59F2201E203F4031804E80329
:10015300FF0000B4000028002800283075A000A08C
:1001630000A000A00000080008E001F0001000104B
:10017300001000100010001000500050005000103C
:10018300001000D0070000000000000F0001000570
:1001930000307507001000010081FF00000000FF20
:1001A30050056E055605FF020202AC82010000985D
:1001B3008202AA820100007D1002A482010000B81D
:1001C3000202AA820100007E1002A882010000CE72
:1001D30002FFFF0100FF2002AC820100009B8202AC
:1001E300AA82010000AC1002AE82000000000002EF
:1001F300B482030000AB03C80BC80BC80BC80BC801
:100203000BC80BC80BC80BC80BC80BC80BC80BC853
:100213000BC00DDE0DBA0D013075030201040000A1
:1002230000000000000000000000000000000000CB
:100233000000000000000000000001E803053F107B
:10024300020AFFFFFF00FEFF0201040702A200B241
:10025300A900B9120135ECD30312013502D40312FC
:10026300013531D40312013567D4031201357ED42D
:100273000312013595D403120135CCD40312013591
:100283001FD50312013536D503120135DDCB031219
:100293000135F4CB0312013525CC0312013560CCB3
:1002A300031201358ACC03120135B4CC0312013594
:1002B300CBCC03120135E2CC03120135F9CC031286
:1002C300013522CD0312013535CD031201354BCD56
:1002D3000312013575CD0312013535AA021201351A
:1002E30039AB0212013566AB02120135BCAB021207
:1002F3000135DFAB02120135F3AB02120135F5AB69
:100303000212013518AC0212013527AD0212013574
:10031300EBAD02120135C0AE0212013531AF02124C
:100323000135BDAF02120135C0AF0212013548B02D
:100333000212013583B002120135EAB0021201350F
:10034300EDB00212013524B1021201354DB1021292
:100353000135F8B10212013582B202120135D1B270
:1003630002120135DEB202120135E1B20212013589
:1003730041B3021201354CB302120135CBB3021261
:100383000135CEB302120135E1B302120135E4B3F4
:100393000212013573B4021201358DB40212013514
:1003A3009DB402120135CDB402120135DAB4021242
:1003B3000135DDB4021201355EB5021201354CB6CA
:1003C30002120135FEB60212013578CC0212013554
:1003D30070CD02120135A4CD0212013526CE0212D0
:1003E300013546CE021201358ECE02120135E1CE21
:1003F3000212013545CF02120135D2CF0212013567
:100403008CD0021201359BD30212013526D502127C
:10041300013549D502120135CDC70312013531C863
:100423000312013590C8031201359EC8031201352A
:10043300C7C8031201359AFA01120135C2FA011233
:100443000135F0FA0112013527FB0112013585FB55
:1004530001120135D0FB011201351BFC01120135DC
:100463005BFC01120135A1FC01120135CFFC011225
:1004730001358CFD0112013596FD01120135A3FDF5
:1004830001120135D6FD01120135A2FE011201351B
:10049300AEFE01120135C6FE01120135D0FE011276
:1004A30001354EFF011201357FD9031201358DD974
:1004B30003120135A5D903120135BDD90312013544
:1004C30051EC01120135FDEC0112013578ED0112F9
:1004D300013599EE01120135D5EE011201357EEF9A
:1004E3000112013565F001120135C9F1011201351F
:1004F30020F201120135A1F20112013591F301122B
:100503000135DEF30112013564F40112013596F46D
:1005130001120135AAF601120135ECF6011201357B
:100523000AF701120135ACF70112013574F8011213
:10053300013581FA011201358EF70212013561F896
:10054300021201350AF9021201355DF90212013571
:100553000DFA0212013599FA0212013585FB0212D6
:100563000135B4FB02120135C7FC021201350FFD40
:1005730002120135E4FD0212013520FE021201359B
:100583003CFE021201350AB40312013520B40312F2
:10059300013546B40312013562B5031201356CB55A
:1005A30003120135A1B60312013599B703120135C0
:1005B300A3B7031201354EA703120135F2A70312A5
:1005C300013525A8031201356FA80312013532AA9C
:1005D3000312013518AD0112013591AD0112013538
:1005E300A1AD011201358FAE0112013599AE011291
:1005F3000135BEAE01120135C9AE01120135B3AFEB
:100603000112013516B001120135CCB001120135CA
:10061300B3B2011201356CB40112013548B50112B0
:100623000135FCB50112013539B901120135E7B9BC
:100633000112013556BB01120135D6BC0112013539
:100643007DBD01120135C6BD01120135FDBD01128B
:1006530001359ABE0112013525BF0112013502C0D1
:100663000112013557C001120135B6C1011201351E
:10067300C6C101120135F3C1011201354AC201128B
:100683000135F3C201120135FAC301120135C4C4A5
:100693000112013524C60112013567C60112013565
:1006A3000CC70112013532C70112013540C90112CD
:1006B300013545C9011201354ACB0112013597CBEA
:1006C300011201350ACC011201353DCC011201356D
:1006D300DFCC0112013588CD01120135C0CD0112E5
:1006E3000135C3CD011201350BCE011201354DCEBB
:1006F30001120135A4CE01120135E1C40312013503
:10070300F4C40312013502C5031201354AC50312AD
:10071300013560C503120135A7C503120135BBC6F8
:100723000312013548C70312013593C7031201357C
:10073300626400120135726400120135D56400123F
:1007430001351A6500120135D06500120135AB661B
:1007530000120135D4660012013504670012013519
:100763004469001201352B6B00120135036D001231
:100773000135476E00120135AE7000120135BC71B0
:10078300001201350E730012013518740012013581
:100793005A7400120135927400120135B4740012B8
:1007A3000135177500120135D979001201356E7ABA
:1007B30000120135C27A00120135E97A00120135BF
:1007C300277B00120135467B00120135A07B001206
:1007D3000135A07C00120135257D001201351193EE
:1007E300031201351B9303120135BF930312013525
:1007F3000294031201351D9403120135AD940312C3
:100803000135D594031201350D9503120135449535
:10081300031201356D9503120135E6950312013577
:10082300FB9503120135109603120135329603121C
:1008330001356C9603120135909603120135A69685
:1008430003120135B99603120135CE960312013511
:100853005497031201358E9703120135069803123C
:1008630001354F9803120135799803120135A49885
:1008730003120135B1FE0212013500800212013567
:100883002E8002120135898102120135698202121A
:10089300013588820212013505830212013548832E
:1008A30002120135C3840212013532850212013569
:1008B3005D8702120135E18902120135928A021223
:1008C3000135888B02120135288C02120135268DE1
:1008D30002120135B18D021201354DD503120135D6
:1008E300B6D5031201350AD60312013539D60312E0
:1008F30001355AD603120135CFAB031201353CAC97
:100903000312013583AC031201359BAD031201358C
:1009130097AE031201357AAF03120135008003123B
:1009230001354280031201351B8103120135158203
:1009330003120135F7820312013560830312013577
:100943007C8403120135E88403120135EB8403121E
:1009530001351485031201358E8503120135338663
:10096300031201354886031201358E8603120135C1
:10097300A78603120135AA8603120135ADB7031208
:100983000135E9B70312013527B803120135F1B870
:100993000312013560B9031201359BB90312013506
:1009A300D9B90312013509BA0312013530BA03125A
:1009B30001359EBA03120135E0BA03120135B8823C
:1009C30001120135138501120135F6860112013535
:1009D3003287011201355F87011201354788011201
:1009E3000135928801120135DD8801120135EF8846
:1009F300011201352F890112013564890112013574
:100A0300B28901120135E18901120135048A01120B
:100A130001358B8A01120135738B01120135608C0C
:100A230001120135048E01120135458E0112013583
:100A3300E78F01120135289001120135219101122E
:100A43000135339301120135839301120135FA9570
:100A53000112013596BE0312013561C0031201353F
:100A6300C9C103120135E047001201358F48001256
:100A73000135BC48001201350849001201353E4AD0
:100A830000120135D44B00120135494C00120135D7
:100A9300984C00120135014D00120135074E00122A
:100AA3000135684F00120135BA4F001201352B5141
:100AB300001201357053001201356A5400120135DA
:100AC300835400120135A25400120135C15400129F
:100AD3000135C45400120135F55500120135ED56A8
:100AE30000120135D957001201354958001201355A
:100AF300BB58001201354259001201351D5A00122C
:100B03000135F25A00120135D15B001201355C5CEC
:100B130000120135CA5C001201353E5D0012013539
:100B2300695D00120135285E00120135715E001205
:100B33000135B45E001201352D5F00120135C55F2A
:100B430000120135B66000120135DB600012013579
:100B5300056100120135806100120135DA6100126E
:100B63000135436300120135F1630012013532642C
:100B730000120135619C02120135AF9C021201354E
:100B8300BB9C02120135999D02120135CA9D0212C6
:100B93000135FB9D021201357B9E02120135B39E86
:100BA30002120135059F02120135429F02120135DF
:100BB3005FA10212013585A30212013570A502124D
:100BC30001355AA702120135F57F001201353F8D19
:100BD300031201358A9103120135CE9203120135B6
:100BE300FDDD01120135B5E001120135BBE0011253
:100BF300013575E30112013542E601120135CC9846
:100C030003120135709903120135429A031201351B
:100C13006C9A03120135BA9C03120135782700122E
:100C23000135C227001201358B3800120135103A05
:100C330000120135333B00120135A4410012013586
:100C43009F4200120135DC4200120135FF420012BF
:100C530001354143001201354B430012013539443C
:100C6300001201352F4500120135C8450012013528
:100C73003CB003120135D2B003120135E8B00312C0
:100C830001355EB103120135D2B10312013510B241
:100C93000312013584B203120135FDB2031201358B
:100CA30006B30312013512B30312013527B303123E
:100CB300013565B3031201357BB303120135DAB392
:100CC30003120135CE8603120135DB86031201358B
:100CD300F586031201353487031201357287031237
:100CE3000135D78703120135EC8703120135F787E6
:100CF300031201350488031201351B8803120135E1
:100D03002988031201353888031201354D880312EF
:100D130001356288031201356D8803120135798824
:100D230003120135868803120135958803120135B4
:100D3300A08803120135C588031201356C8903129B
:100D430001357C8903120135918903120135A68986
:100D530003120135C08903120135DB890312013502
:100D6300F88903120135038A03120135BF8A03127E
:100D73000135AB8B03120135D08B03120135DB8BAD
:100D830003120135F08B03120135048C0312013574
:100D9300658C031201356B8C03120135718C0312C0
:100DA3000135778C031201358F8C03120135C28C08
:100DB3000312013522C20212013544C20212013567
:100DC30024C302120135FBC50212013527C70212E3
:100DD30001354BC802120135FDC8021201359EC907
:100DE30002120135378E02120135BB8E0212013514
:100DF3006A8F02120135C99002120135EA9202127A
:100E03000135D693021201350B94021201352D944C
:100E130002120135DC9402120135D4960212013517
:100E2300FD96021201358F9702120135C197021206
:100E33000135CE97021201352598021201354B98E0
:100E430002120135B89A02120135BB9B0212013519
:100E5300139C0212013591CF011201359BD001126F
:100E6300013582D1011201358CD101120135AED188
:100E730001120135BAD10112013553D301120135E3
:100E830082D3011201359ED401120135F7D4011228
:100E930001355DD6011201353CD70112013598D7D2
:100EA3000112013505D80112013540D8011201356F
:100EB3007FD80112013538DB0112013552DB0112F3
:100EC3000135DEDB01120135ECDB0112013545DCB6
:100ED3000112013553DC01120135C6DC0112013563
:100EE3002ADD0112013574DD0112013587CD0312AC
:100EF3000135ACCD031201351ECE0312013542F08C
:100F0300021201354BF00212013554F00212013581
:100F13002BF102120135DCF20212013512F3021237
:100F230001354CF30212013582F302120135BCF391
:100F330002120135F0F3021201351CF402120135DD
:100F430065F4021201359FF402120135E8F402122E
:100F5300013540F50212013575F502120135D0F560
:100F6300021201350AF6021201355BF6021201354F
:100F730091F602120135CBF602120135EEF602129A
:100F8300013507DB0312013533DB031201358EDB39
:100F93000312013598DB03120135A8DB0312013577
:100FA30074D602120135B3D6021201353CD70212B0
:100FB300013502D902120135E0D9021201351ADADC
:100FC3000212013529DA02120135D7DA021201358C
:100FD30030DB0212013599DB0212013591DC02127A
:100FE300013585DD0212013585DF02120135C2DFCD
:100FF300021201354DDC031201351398011201353C
:101003008F9A011201350B9C01120135FD9C0112CF
:101013000135849D01120135029E01120135279E7F
:10102300011201358A9E0112013509A2011201350F
:1010330085A20112013571A301120135A9A3011281
:101043000135ECA30112013598A501120135C9A59B
:10105300011201351EA6011201356BA601120135DD
:10106300D9A60112013500A7011201351AA70112F1
:1010730001352FA8011201353FA8011201356AA9D4
:101083000112013580A901120135B6A901120135FA
:1010930007AB011201357EAB01120135BDAB011265
:1010A3000135EAAC0112013556DA0312013567DA6C
:1010B300031201356CDD03120135ABDD031201357B
:1010C300D3DD031201359DD803120135ADD80312C8
:1010D3000135C5D80312013579D903120135A0D6DC
:1010E3000312013524D7031201358AD703120135C0
:1010F3002CCF0312013555CF03120135BBCF031299
:101103000135DACF031201352DD00312013586D014
:1011130003120135C1D003120135C4D003120135C6
:1011230028BB031201353DBB031201359CBC0312DE
:1011330001350ABD031201357EBD0312013598BD89
:1011430003120135AFBD03120135C2BD03120135D0
:10115300DABD03120135EFBD0312013510BE0312D0
:10116300013561BE03120135E69D03120135FD9D74
:1011730003120135769E031201354F9F0312013589
:101183000DA20312013572A203120135B1A203129B
:101193000135F87F001201358C7D00120135147F73
:1011A30000120135757F00120135BB7F0012013536
:1011B300CED003120135F7D00312013520D103122B
:1011C3000135B9D103120135D1D10312013513D23F
:1011D30003120135FADF0212013504E00212013570
:1011E30044E0021201358DE002120135C7E002121C
:1011F300013521E10212013540E102120135E2E33A
:1012030002120135EBE3021201353CE4021201350F
:1012130065E4021201356FE402120135DBE40212C8
:1012230001356FE502120135CEE502120135FCE509
:10123300021201357CE602120135BFE602120135C6
:10124300FAE6021201350CE7021201352BE702120E
:10125300013534E70212013503E80212013558D291
:1012630003120135ADD2031201351BD3031201352D
:101273008BD303120135F3C1031201351DC20312CF
:101283000135F2C203120135E6C30312013569C405
:1012930003120135A3D703120135DBC9031201354C
:1012A30011CA031201354ACA03120135A3CB031233
:1012B3000135B2DB03120135C8DB03120135D2DB82
:1012C300031201351CDC03120135B5DC03120135B1
:1012D3002FE802120135ECE80212013527E9021268
:1012E30001354FE902120135B1E902120135FDE979
:1012F3000212013561EA02120135DBEA02120135FD
:10130300DDEB0212013590ED0212013512EE0212ED
:10131300013577EE021201358EEE0212013597EF99
:1013230002120135D5EF02120135C4A203120135B1
:10133300DDA2031201357EA303120135BEA30312FE
:101343000135D7A3031201350AA40312013557A4AB
:10135300031201358BA403120135CDA40312013509
:10136300D7A60312013541A7031201356FB7021245
:101373000135E8B802120135B0B902120135CDBB0F
:10138300021201359DBC02120135C0BC02120135A7
:1013930070BF02120135C2BF0212013553C00212DF
:1013A30001356FC102120135F0C102120135CAFFC6
:1013B30002120135BE7F00120135D6FF011201353D
:1013C300B5DD03E066701008A3E066700A08A3E0C9
:1013D30066700408A3E06622C3E7960809E7960847
:1013E30009E7960809E79622C3E09608A3E0960862
:1013F300A3E09608A3E09622C008C3E096F5080888
:10140300A3E096420808A3E096420808A3E09645A5
:10141300087001D3D00822080808EAC0E0EBC0E056
:1014230086F0E7A4FA180986F0E7A42AFA180986D1
:10143300F0E7A42AFA180986F0E7A42AFA1986F035
:10144300E7A4FBE5F02AFA190886F0E7A42BFBE5ED
:10145300F03AFA190886F0E7A42BFBE5F03AFA18FC
:10146300180986F0E7A4C5F02BFBE43AFA1908E75C
:10147300C5F0C6A426F6E5F03BFBE43AFA1886F07D
:10148300E7A4F6E5F00826F6E43B08F6E43A08F6A6
:10149300D0E0FBD0E0FA22E4CFC0E0E4CEC0E0E449
:1014A300CDC0E0E4CCC0E075F020E626F608E633D4
:1014B300F608E633F608E633F6181818EC33FCEDB5
:1014C30033FDEE33FEEF33FFC3EC9709ED9709EEDF
:1014D3009709EF97191919400FFFEC97FC09ED973E
:1014E300FD09EE97FE191906D5F0BFECF709EDF7E4
:1014F30009EEF709EFF7191919D0E0FCD0E0FDD098
:10150300E0FED0E0FF226016080808C6C313C61821
:10151300C613C618C613C618C613C6D5E0EA22708A
:1015230009080808226016181818C6C333C608C667
:1015330033C608C633C608C633C6D5E0EA22E62753
:10154300F60809E637F60809E637F60809E637F636
:1015530022E026F608A3E036F608A3E036F608A351
:10156300E036F622E026F008A3E036F008A3E036E2
:10157300F008A3E036F022C3E697F60809E697F6EB
:101583000809E697F60809E697F622C3E096F008FD
:10159300A3E096F008A3E096F008A3E096F022E615
:1015A30057F60809E657F60809E657F60809E65715
:1015B300F622E056F608A3E056F608A3E056F6082E
:1015C300A3E056F622E056F008A3E056F008A3E0A5
:1015D30056F008A3E056F022E0F608A3E0F608A3CD
:1015E300E0F608A3E0F622E6F008A3E6F008A3E697
:1015F300F008A3E6F022E0FAA3E0FBA3E0FCA3E0FB
:10160300FD22EAF0A3EBF0A3ECF0A3EDF022E0F867
:10161300A3E0F9A3E0FAA3E0FB22E8F0A3E9F0A337
:10162300EAF0A3EBF022CAC0E0E6F0A308DAFAD0AE
:10163300E0FA22CAC0E0E0A3C582CCC582C583CD4F
:10164300C583F0A3C582CCC582C583CDC583DAE645
:10165300D0E0CA22C3E498F8E499F91216988026D8
:10166300C3E49AFAE49BFBE920E7E9121698E498AD
:10167300F8E499F922C3E498F8E499F9121698E486
:1016830098F8E499F9C3E49AFAE49BFB22EB20E788
:10169300CFE920E7E0B90010BB0008E88AF084F83E
:1016A300AAF022E4FBC8FA22EB70227B10C833C8ED
:1016B300C933C9335007C39AC3DBF280069A50017A
:1016C3002ADBEAC833F4C8C933F4C9FA2275F0082F
:1016D300E4C833C8C933C933C99AC99B5004C92A5A
:1016E300C93BD5F0ECFBC833F4C8E4C9FA22600D5A
:1016F30008C6A2E713C618C613C6D5E0F322600CCA
:1017030008C6C313C618C613C6D5E0F42270042254
:10171300600D18C6C333C608C633C6D5E0F4182215
:10172300251810AF08F518400C15198008F5184056
:10173300021519D2AF2200C0D0251810AF08F51832
:10174300500C05198008F51850020519D2AFD0D0F6
:10175300222518F58210AF08F518400C15198008DA
:10176300F51840021519D2AF851983222518F58281
:10177300E43519F583222518F8E43519F9222518DB
:10178300FAE43519FB222518FCE43519FD22E4732C
:101793002518C582C0E0E51934FFC583C0E0E5180C
:1017A300C3958224F810AF088583198582188008B1
:1017B300858319858218D2AFCEF0A3E520F0A378F4
:1017C30008E608F0A3DEFAEFF0A3E58124FAF8E6D1
:1017D30008F0A3E608F0A3E608F0A30808E608F07B
:1017E300A3E608F0A315811581D0E0FED0E0F8153B
:1017F3008115811581E8C0E0EEC0E0222518C5827D
:10180300C0E0E51934FFC583C0E0E518C395822421
:10181300F910AF0885831985821880088583198597
:101823008218D2AFCEF0A3E520F0A37808E608F043
:10183300A3DEFAEFF0A3E58124FBF8E608F0A3E6C4
:1018430008F0A30808E608F0A3E608F0A31581153D
:1018530081D0E0FED0E0F815811581E8C0E0EEC04C
:10186300E022851983851882E0A3FEE0A3F52078A2
:1018730008E0A3F608DFFAE0A3FFE0A3C0E0E0A3DB
:10188300C0E0E0A3C0E0E0A3C0E0E0A3C0E010AF8D
:10189300088582188583198008858218858319D263
:1018A300AFD083D082020132851983851882E0A3E9
:1018B300FEE0A3F5207808E0A3F608DFFAE0A3FF33
:1018C300E0A3C0E0E0A3C0E0E0A3C0E0E0A3C0E089
:1018D30010AF08858218858319800885821885834F
:1018E30019D2AFD083D08222C0D02518C582C0E0E0
:1018F300E51934FFC583C0E0E518C3958224F310CE
:10190300AF08858319858218800885831985821815
:10191300D2AFC8F0A3E9F0A3EAF0A3EBF0A37908F0
:10192300E709F0A3D8FAECF0A3EDF0A3EEF0A3EFF0
:10193300F0A3D0E0F0A3D0E0F0A3D0E0F0A3E52043
:10194300F0A3E5F0F0A322851983851882E0C0E0B7
:10195300A3E0F9A3E0FAA3E0FBA37808E0F608A369
:10196300DFFAE0FCA3E0FDA3E0FEA3E0FFA3E0C0F9
:10197300E0A3E0C0E0A3E0F5D0A3E0F520A3E0A35B
:10198300F5F010AF088583198582188008858319BF
:10199300858218D2AFD082D083D0E0F8D0E0327401
:1019A300048006740280027401C0E0F40412175428
:1019B300D0E0121629227404800474028000CCC083
:1019C300E0EDC0E0E518C39CCCAD1950011D10AF8C
:1019D300068C188D1980068C188D19D2AF12163605
:1019E300D0E0FDD0E0FC22D083D082E9C0E0E493D4
:1019F300A3C386F0C5F095F0F908E493A386F0C578
:101A0300F095F0700BE493A3C3994005E9048002B9
:101A1300A3E475F002A42582F582E5F03583F5830E
:101A2300D0E0F9E493A3C0E0E493C0E022D083D0F4
:101A330082ECC0E0EDC0E0E493A3FCE493A3FDEDEE
:101A43004C600D121A7CEC24FFFCED34FFFD80EF9B
:101A5300E493A3FCE493A3FDED4C600D121ABBECDD
:101A630024FFFCED34FFFD80EFD0E0FDD0E0FCE48B
:101A730093A3C0E0E493C0E022C0E0C3E4939608DC
:101A83007401939618400FE49366700808740193E9
:101A9300661870007019A3A3C3E4939608740193A6
:101AA3009618A3A3400DD0E0D0E0D0E0021A6CA3B7
:101AB300A3A3A3A3A3D0E022C0E0C0F088F0E493E3
:101AC3006670080874019366187000A8F0A3A370E9
:101AD3000BD0F0D0E0D0E0D0E0021A6CA3A3D0F09A
:031AE300D0E0222E
:101AE80074F51217FFEAFEEBFFEE2434F8EF34002A
:101AF800F988088909EE2435F582EF3400F583E08A
:101B0800F8EE2437F582EF3400F583E0F50AEC852A
:101B18000AF0A4FCAAF0850AF0EDA42AFDE82CF846
:101B2800E43DF97A257B00121698EA850882850932
:101B380083F0F8740758F97401B900028004C333BC
:101B4800D9FCFAE8131313541FF8EE28F8EF340001
:101B5800F9E8245DF582E93400F583E05A6008EE7F
:101B68002434F582EF802CEE2434F582EF3400F52E
:101B780083E0C0E0EE2436F582EF3400F583E0F52B
:101B8800F0D0E084A8F0EE28F8EF3400F9E8243823
:101B9800F582E93400F583E0F97F040218AB74F5A7
:101BA8001217FFEAFEEBFFEE2434F582EF3400F55E
:101BB80083E0C0E0EE2435F582EF3400F583D0E011
:101BC800F08E828F83A3A3A3A3A3A3A3C082C08301
:101BD8008E828F83A3A3A3A3A3E0F8A3E0F9D08305
:101BE800D082E0C398F508A3E099F509EE247FF5C3
:101BF80082EF3400F583E064017069EE2480F58299
:101C0800EF3400F583E0F8A3E0F98E828F83A3A375
:101C1800A3A3A3A3A3E0FCA3E0FD8E828F83A3A3C9
:101C2800A3A3A3E0FAA3E0FBC3EA9CEB9D5010C377
:101C3800EC98ED99402EC3EA98EB995027800EC393
:101C4800EA98EB994007C3EC98ED9940177CC57D5D
:101C580007EEFAEFFB120B20EE247FF582EF34003B
:101C6800F583E4F0EE2434F8EF3400F9E8FCE9FDFC
:101C7800EE2435F582EF3400F583E0F8EE2437F5ED
:101C880082EF3400F583E0F50AE508850AF0A4F54B
:101C980008AAF0850AF0E509A42AF509E82508F854
:101CA800E43509F97A257B00121698EA8C828D832F
:101CB800F0F8740758F97401B900028004C333D9E5
:101CC800FCFAE8131313541FF8EE28F8EF3400F960
:101CD800E8245DF582E93400F583E05A6008EE24D3
:101CE80034F582EF802CEE2434F582EF3400F5834E
:101CF800E0C0E0EE2436F582EF3400F583E0F5F03D
:101D0800D0E084A8F0EE28F8EF3400F9E82438F59C
:101D180082E93400F583E0F91226EB021BA174EF87
:101D28001217FF90047FE064086005E06407702ADA
:101D38009061C8E060249004ADE0F4601DE0F8759F
:101D4800F005A4C8AAF02AF974AF28FE740439FF74
:101D58008E828F83A3A3A3E07003021E5690606057
:101D6800E0C0E0EE2468F582EF3400F583D0E0F0BF
:101D7800750C56750D08750800750900E5D914F538
:101D88000AE5D95403F50E60177403650E605CE527
:101D98000A6010EE2467F582EF3400F583E07003E3
:101DA800021E3B900851E06401602AEE2482F5820D
:101DB800EF3400F583E06004780480027800850A37
:101DC80008E508C398FA95E0FB1209D08A088B0940
:101DD800EA45097005120D968074EE2482F582EFAB
:101DE8003400F583E070048A0C8B0DE50A601285D7
:101DF8000C82850D83F50BE5D9F0A3150BE50B7067
:101E0800F6EE2482F582EF3400F583E0604474FC3A
:101E1800250AF50A780C1219A6AC0AA90EEEFAEFF3
:101E2800FB120BC27402121739E97026AA08AB0913
:101E3800121264793D8E828F83A3A3A3A3E0FA7B59
:101E4800001208B6EEFAEFFB120B3E120C227900D4
:101E580080747403650E6056850A10751100781039
:101E68001219A6AC0CAD0DAA08AB09120B9E740290
:101E7800121739EE2468F582EF3400F583E06480A8
:101E88007004747F8001E0F50C780C1219AAE50E35
:101E9800F50C780C1219AAA90AAC08AD099004AD82
:101EA800E0FA7B0012087474021217398013900448
:101EB8007FE06408700BAC0CAD0DEEFAEFFB120B73
:101EC800F2120DA279017F0A0218AB74F51217FFFE
:101ED80074FC121723EAFEEBFF8908A2AFE433F57E
:101EE80009C2AF806AEE2463F8EF3400F97A007B08
:101EF80000A2AFE433F50AC2AF88828983E0FCA36D
:101F0800E0FDEC4D603A88828983E0FAA3E0FB8A21
:101F1800828B83E0FCA3E0FD88828983ECF0A3ED4B
:101F2800F08A828B83E4F0A3F088828983E0FCA3A3
:101F3800E0FDEC4D700A88828983A3A3E4F0A3F046
:101F4800E50AA2E092AF1212649007CCE004F0EE2A
:101F58002463F582EF3400F583E0F8A3E0F9E8495B
:101F6800603DEE2463F582EF3400F583E02402FA45
:101F7800A3E03400FBEA2402F50AEB3400F50B7801
:101F88000A1219A68A828B83E0FCA3E0F9EEFAEF25
:101F9800FB120B627402121739E97003021EED90EE
:101FA80007CCE060639007CDE0F89007CCE0C398D9
:101FB800500C7402650870509007CEE0604A8E821B
:101FC8008F83A3A3A3A3E0851882851983F0A3E4D4
:101FD800F09007CCE0F8740212176FE8F0A3E4F071
:101FE8009007CCE0F89007CBE028F0740212176F46
:101FF800AC82AD83851882851983AA82AB83790167
:102008001208809007CCE4F0E509A2E092AF7404CE
:10201800121739021BA10000851B87851CC622C028
:10202800E0C0D0E8C0E0E9C0E0EAC0E0EBC0E0EC26
:10203800C0E0EDC0E0EEC0E0C008C009C00AC00BB7
:10204800C082C083C0F0A2AFE433FEC2AF759B006C
:10205800906182E0A2E05012E591A2E0500C7591E7
:10206800FE7401651B7003121D26E0A2E55051E5C0
:1020780091A2E5504B7591DF90047FE064076005FD
:10208800E0640870237401651B703579019004AD14
:10209800E0FA75F005A4CAA8F028FB74AF2AFA7410
:1020A800043BFB121ED38018E0640D70139004A14A
:1020B800E004F064287002E4F07A00E0F9120DA858
:1020C800906182E0A2E6400302216EE591A2E6401B
:1020D8000302216E7591BF90047FE06405700812B9
:1020E8000C9A120CA68003120CA0751B00120D127C
:1020F800E9900480F07900120CF4120A787A017BD6
:102108000090047EE0F9121234907803E064427083
:1021180055900855E014F0704DC2AF122126007892
:102128001ED0E0F618D0E0F6E59F54077005750953
:10213800FF800375097FC4C0E0781DE6F50808E64E
:102148005509F509740B7808121701D0E02508F82D
:10215800906270E0A2E740F8E8C333906272F090B2
:102168006270E0D2E0F0906181E0A2E35009E5E915
:10217800A2E3500375E9F7A3E0A2E75009E591A2AD
:10218800E7500375917FEEA2E092AFD0F0D083D0F4
:1021980082D00BD00AD009D008D0E0FED0E0FDD024
:1021A800E0FCD0E0FBD0E0FAD0E0F9D0E0F8D0D005
:1021B800D0E032C0E0C0D0C082C083906183E0A28A
:1021C800E05009E5BFA2E0500375BFFEE0A2E15070
:1021D80009E5BFA2E1500375BFFDE0A2E25009E5A1
:1021E800BFA2E2500375BFFBE0A2E35009E5BFA21E
:1021F800E3500375BFF7E0A2E45009E5BFA2E4503D
:102208000375BFEFE0A2E55009E5BFA2E5500375ED
:10221800BFDFE0A2E65009E5BFA2E6500375BFBFE5
:10222800D083D0828088C0E0C0D0E8C0E0E9C0E0B8
:10223800EAC0E0EBC0E0ECC0E0EDC0E0C0F0E5A72C
:10224800A2E6500FE5A1A2E6500953A7BF75A1BFAA
:10225800122293E5A7A2E5500CE5A1A2E55006538A
:10226800A7DF75A1DFE5A7A2E15009E5A1A2E1502A
:102278000375A1FDE5A7A2E2500CE5A1A2E2500674
:1022880053A7FB75A1FBD0F00221A474F81217FF25
:10229800751B0190047FE064067015120C468A8253
:1022A8008B83A3A3A3A3A3A3E0FAA3E0FB120C8848
:1022B800A2AFE433FED2AF900485E0640170187ACF
:1022C800207B0090047EE0F912134E7A207B009068
:1022D800047EE0F912123A906182E0D2E6F09008AA
:1022E80052E0602185C61C8016900484E064017069
:1022F80008E5C654F84405F5C653BEFC1220207400
:1023080001651B60E4EEA2E092AF7F010218AB7496
:10231800E91217FF74F8121723851882851983ECC0
:10232800F0A3EDF08A088B0990047FE024F7C394AA
:102338000550067508010224AE120C468A0A8B0B5A
:10234800AE0AAF0BEE4F70030224ABAC08AD0974B4
:102358000212176FAA82AB83120CB88E828F83A3E6
:10236800A3750CFF750DFF750EFF750F00780C1225
:1023780015B5740212176F7510FF7511FF7512FFEE
:1023880075130078101215B5780C79101213DB50FC
:102398002A780C791012157A7508017509C8750A1A
:1023A80000750B007808790C1213DB5052850C0865
:1023B800850D09850E0A850F0B805075140175155A
:1023C800C875160075170085100885110985120A49
:1023D80085130B7808790C12157A7814790812137A
:1023E800DB401C750800750900750A00750B01783B
:1023F80008791012157A7808790C121541800C7535
:102408000801750900750A00750B0074097808122F
:102418001522750C19F50DF50EF50F7808790C12C3
:10242800149A8E828F83A3A3A3A3A3A3E0F8A3E0A7
:10243800F97AD07B03121698880C890DE4F50EF50D
:102448000F7808790C121541740612176FE0F8A37B
:10245800E0F97AD07B03121698E8FA8A0CE4F50DB5
:102468007808790C1213DB50077808790C12157A62
:1024780090047FE06408600AE064066005E0640593
:10248800702D750C0D780C79081213DB4021750C32
:10249800F4750DFF750EFF750FFF7808790C12158E
:1024A80041800C750800750900750A00750B0085D8
:1024B8001882851983E0F8A3E0F5838882780812EA
:1024C80015EA74081217397F100218AB74F712173F
:1024D800FF120CCA900850E064017010906245E445
:1024E800F0A3F053F4F343FE0C5390F3120C76E58B
:1024F800C654804449F5C6E59E547F644970F890F7
:102508006185740FF090084EE0F47002A3E0604E0D
:1025180090084FE0600814601B14602E8040750816
:102528000175090090084EE07808121710E508F4C4
:102538005280802A75080175090090084EE07808D5
:10254800121710E508F452908014750801750900F7
:1025580090084EE07808121710E508F452A07900A8
:102568007F020218AB74F71217FFE9FEEAFF740145
:102578006E700C7A807B0090047EE0F91212349021
:102588002770E493F46008E493F9120A6C80095305
:10259800C680E59E547F70FA120C7C900850E06467
:1025A800017003120A8490084EE0F47002A3E06000
:1025B8004B90084FE0600814601A14602C803D7539
:1025C800080175090090084EE07808121710E50810
:1025D8004280802875080175090090084EE0780847
:1025E800121710E5084290801375080175090090CC
:1025F800084EE07808121710E50842A0120CCA121B
:102608000C468A088B09A808A909E8496015E5E17C
:1026180070FCE82414F582E93400F583E0F46003E3
:10262800E0F5E174016F700A7A0190047EE0F91216
:1026380012BE02256874ED1217FF8A088B098C0AEE
:102648008D0B741312176F780C1215DB7808790C40
:102658001213DB7510017511C8751200751300503F
:10266800127808790C12157A781079081213DB5051
:10267800168010780C790812157A7810790C1213D4
:10268800DB40047901800279007F0C0218AB74EDFD
:102698001217FF8A088B098C0A8D0B741312176F97
:1026A800780C1215DB780C79081213DB40117808C6
:1026B800790C12157AAA08AB09AC0AAD0B80227501
:1026C80010007511007512007513017810790C123D
:1026D800157A78107908121541AA10AB11AC12AD11
:1026E8001380A6C082C083E9906000F0D083D082B6
:1026F80022C0E074F21218EBA2AFE433FED2AFE5C9
:1027080089A2E1500312110E758900C2C5751A001D
:10271800EEA2E092AF7F0102194AC0E074F21218EB
:10272800EBA2AFE433FED2AFE58BA2E05003121167
:102738000E758B00C2E880D5C0E0C0D0E8C0E0E9E3
:10274800C0E0A9A8D2AFC2C7751A00E9A2E7E4336E
:10275800F8E9A2E792AFD0E0F9D0E0F8D0D0D0E025
:0727680032C2AF02000022A3
:10277000FFFFFFFFFFFFFFFFC082C08378A779083C
:1027800088828983A3A3A3A3A3A3E4F08882898377
:10279000A3A3A3A3A374FFF0E82418F8E93400F975
:1027A000E8641F7003E9640970D69008A974FFF00B
:1027B0009008A8E4F09008A7F09008AAF0A3F0020F
:1027C00042F874EC1217939008AAE0F508A3E0F51C
:1027D00009E50845097006120A78023886850882DC
:1027E000850983E014601814601524FE601124C468
:1027F000700302316724C07003023167023886E03B
:10280000F9120C348A0A8B0BAE0AAF0B9004ACE0C1
:102810007003022C83120B32E9F875F005A4C8AAE4
:10282000F02AF974AF28F50C740439F50D850C8283
:10283000F583E0F50AA3E0F50BAC0AFDEEFAEFFB39
:10284000120C2EE9F50E7402650E7003022C2B8E0D
:10285000828F83E01460101470030228E324FE705A
:1028600003022B15023886EE65087003EF650960D8
:102870002C120A90850882850983E06402701E90FC
:102880000835E064017016900834E0701079001289
:102890000D66120D30120D607901120D6CE50E708F
:1028A00039120CB28A0C8B0D8C0E8D0F75100375BE
:1028B0001100751200751300780C7910121541750E
:1028C00010FF7511FF7512FF780C79101215A28E8A
:1028D000828F83A3A3780C1215EA850A82850B8365
:1028E0000232CDEE65087003EF65096021120AA877
:1028F000900835E064017016900834E0701079019A
:10290000120D66120D30120D607900120D6CE50E7D
:102910006021E5082415F582E5093400F583E060BF
:1029200012900830E0F8A3E0F9A3E0687003A3E098
:10293000697042120CB28A0C8B0D8C0E8D0F7510C3
:1029400003751100751200751300780C79101215BB
:10295000417510FF7511FF7512FF780C7910121573
:10296000A28E828F83A3A3E50CF0A3E50DF0A3E56F
:102970000EF0A3E4F0E5082415F582E5093400F52E
:1029800083E064016003022A2D850A82850B83A3FC
:10299000A3750CF1750DFF750EFF750FFF780C1206
:1029A0001554780C1219A28E828F83A3A3C082C003
:1029B00083900832E0F508A3E085080CF50DE4F5F6
:1029C0000EF50FD083D082780C121554AA0CAB0DE3
:1029D000AC0EAD0F12263D7404121739E9701F8E2C
:1029E000828F83A3A3C082C083900832E0F508A33E
:1029F000E0F509E4F50AF50BD083D0828014850A4E
:102A000082850B83A3A37508F17509FF750AFF750D
:102A10000BFF7808121554750CFF750DFF750EFF2E
:102A2000750F007808790C1215A202305FEE240EA3
:102A3000F582EF3400F5831219B98E828F83A3A338
:102A40001215F912263D7404121739E96401600366
:102A50000237A7850A82850B83A3A3750CF1750D38
:102A6000FF750EFF750FFF780C121554780C1219B4
:102A7000A28E828F83A3A3C082C083900832E0F528
:102A800008A3E085080CF50DE4F50EF50FD083D012
:102A900082780C121554AA0CAB0DAC0EAD0F122699
:102AA0003D7404121739E9701F8E828F83A3A3C06F
:102AB00082C083900832E0F508A3E0F509E4F50A46
:102AC000F50BD083D0828014850A82850B83A3A363
:102AD0007508F17509FF750AFF750BFF7808121567
:102AE00054750CFF750DFF750EFF750F0078087992
:102AF0000C1215A2EE240EF582EF3400F58378084F
:102B00001215EA900838E06427700474258002E00A
:102B100004F00237A7EE65087003EF650960319095
:102B2000084CE0F9120AAE850882850983E0640248
:102B3000701E900835E064017016900834E0701043
:102B40007900120D66120D30120D607901120D6CB4
:102B5000E50E6012900846E0F8A3E0F9A3E0687083
:102B600003A3E0697039120CB28A0C8B0D8C0E8DA8
:102B70000F751003751100751200751300780C792C
:102B8000101215417510FF7511FF7512FF780C7941
:102B9000101215A28E828F83A3A3780C1215EA85DA
:102BA0000A82850B83A3A3750CF1750DFF750EFFCB
:102BB000750FFF780C121554780C1219A28E828FA3
:102BC00083A3A3C082C083900848E0F508A3E085F2
:102BD000080CF50DE4F50EF50FD083D082780C12B9
:102BE0001554AA0CAB0DAC0EAD0F12263D74041299
:102BF0001739E9701F8E828F83A3A3C082C0839090
:102C00000848E0F508A3E0F509E4F50AF50BD083E0
:102C1000D0828014850A82850B83A3A37508F17581
:102C200009FF750AFF750BFF0234D28508828509FA
:102C300083E064027013900835E06401700B900823
:102C400034E070057900120D66E50C2404FEE50DF4
:102C50003400FF8E828F83E0F9120C6A8E828F839C
:102C6000E09004ADF07902FA75F005A4CAA8F02846
:102C7000FB74AF2AFA74043BFB121ED3AA0AAB0BF7
:102C8000023883EE65087003EF65098E828F8360DA
:102C900003022E9FE024FE600A24FE7003022DDC56
:102CA00002387FEE2415F582EF3400F583E0604CA6
:102CB000900830E0F8A3E0F9A3E0687003A3E069AE
:102CC000603A120CB28A088B098C0A8D0B750C0ABB
:102CD000750D00750E00750F007808790C121541FE
:102CE00078081219A28E828F83A3A31215F91226D7
:102CF0003D7404121739E9600302387F120CB28A5E
:102D0000088B098C0A8D0B750C03750D00750E0070
:102D1000750F007808790C121541750CFF750DFFC1
:102D2000750EFF7808790C1215A28E828F83A3A3EB
:102D300078081215EAEE2415F582EF3400F583E0E9
:102D4000640170328E828F83A3A3C082C0839008F7
:102D500032E0F508A3E0F509E4F50AD083D08278E3
:102D600008121554EE240EF582EF3400F58378082E
:102D70001215EA02387FEE240EF582EF3400F58357
:102D80001219B98E828F83A3A31215F912263D74EE
:102D900004121739E96401600302387F8E828F8341
:102DA000A3A3C082C083900832E0F508A3E0F50930
:102DB000E4F50AD083D0827808121554EE240EF57B
:102DC00082EF3400F58378081215EA900838E06441
:102DD00027700474258002E00402387E900846E0E3
:102DE000F8A3E0F9A3E0687003A3E0696037120C70
:102DF000B28A088B098C0A8D0B750C0A750D00754B
:102E00000E00750F007808790C1215417808121918
:102E1000A28E828F83A3A31215F912263D74041289
:102E20001739E97077EE2402F508EF3400F509123E
:102E30000CB28A0C8B0D8C0E8D0F75100375110062
:102E4000751200751300780C79101215417510FF7A
:102E50007511FF7512FF780C79101215A285088282
:102E6000850983780C1215EA850882850983C0825A
:102E7000C083900848E0F508A3E0F509E4F50AF5F9
:102E80000BD083D0827808121554EE240EF582EF11
:102E90003400F58378081215EA120AB402387FE08C
:102EA000146010147003022F9024FE70030230711E
:102EB000023886120A90850882850983E0640270D0
:102EC0001E900835E064017016900834E0701079A7
:102ED00000120D66120D30120D607901120D6C1288
:102EE0000CB28A088B098C0A8D0B750C0A750D00C3
:102EF000750E00750F007808790C121541780812CC
:102F000019A28E828F83A3A31215F912263D740491
:102F1000121739E97077120CB28A088B098C0A8D66
:102F20000B750C037808790C121541750CFF750DA3
:102F3000FF750EFF7808790C1215A28E828F83A37D
:102F4000A378081215EA90047FE06402702C8E8248
:102F50008F83A3A3750800750908750A0078081205
:102F600015547808790C1215A2EE240EF582EF3470
:102F700000F58378081215EA8013EE240EF582EF2F
:102F80003400F58374FFF0A3F0A3F0A3F00236C180
:102F9000120AA8900835E064017016900834E070B9
:102FA000107901120D66120D30120D607900120DAC
:102FB0006C900830E0F8A3E0F9A3E0687003A3E0A8
:102FC000696037120CB28A088B098C0A8D0B750C5C
:102FD0000A750D00750E00750F007808790C121532
:102FE0004178081219A28E828F83A3A31215F912B9
:102FF000263D7404121739E97074EE2402F508EFC7
:103000003400F509120CB28A0C8B0D8C0E8D0F75E5
:103010001003751100751200751300780C791012E9
:1030200015417510FF7511FF7512FF780C7910129C
:1030300015A2850882850983780C1215EA85088215
:10304000850983C082C083900832E0F508A3E0F5CB
:1030500009E4F50AF50BD083D0827808121554EEF6
:10306000240EF582EF3400F58378081215EA023752
:10307000A790084CE0F9120AAE850882850983E022
:103080006402701E900835E064017016900834E008
:1030900070107900120D66120D30120D6079011258
:1030A0000D6C900846E0F8A3E0F9A3E0687003A374
:1030B000E0696037120CB28A088B098C0A8D0B7597
:1030C0000C0A750D00750E00750F007808790C124A
:1030D000154178081219A28E828F83A3A31215F9C5
:1030E00012263D7404121739E97079EE2402F8EFC4
:1030F0003400F988088909120CB28A0C8B0D8C0EE9
:103100008D0F751003751100751200751300780C82
:1031100079101215417510FF7511FF7512FF780CAB
:1031200079101215A2850882850983780C1215EA98
:10313000850882850983C082C083900848E0F5082D
:10314000A3E0F509E4F50AF50BD083D082780812E4
:103150001554EE240EF582EF3400F583780812152D
:10316000EA120AB40238799004ACE070030235DF49
:10317000120B32E9F875F005A4C8AAF02AF974AF69
:1031800028F510740439F511851082F583E0F508EF
:10319000A3E0F5099004ADE0F875F005A4C8AAF025
:1031A0002AF974AF28F50E740439F50F9008A8E0D9
:1031B000540770030234EDA3E0F9120C348A0A8B31
:1031C0000BAE0AAF0BAC08AD09120C2EE9F50C746E
:1031D00002650C70030234ED850E82850F83A3A374
:1031E000A3A3E0F875F08AA4C8AAF02AF9742428E9
:1031F000F50A740939F50BAA0AFB120C5EAA0AAB90
:103200000B120C5875128075130078121219A67CD7
:10321000007D60E50A2406FAE50B3401FB120B9EE3
:103220007402121739A80AA90B906195E0C0E0E872
:103230002486F582E93401F583D0E0F0906196E0D0
:10324000C0E0E82487F582E93401F583D0E0F0900E
:103250006197E0C0E0E82488F582E93401F583D085
:10326000E0F0906198E0C0E0E82489F582E934015B
:10327000F583D0E0F08E828F83E014600D14606FD0
:1032800024FE70030233F80234ED120A90E50C704C
:1032900036120CB28A0C8B0D8C0E8D0F75100375C7
:1032A0001100751200780C79101215417510FF7518
:1032B00011FF7512FF780C79101215A28E828F8380
:1032C000A3A3780C1215EA850882850983A3A37548
:1032D00008F17509FF750AFF750BFF780812155480
:1032E000750CFF750DFF750EFF750F0002369612F7
:1032F0000AA8900835E064017011900834E0700B62
:10330000120D30120D607900120D6CE50C601290F8
:103310000830E0F8A3E0F9A3E0687003A3E0697067
:1033200036120CB28A0C8B0D8C0E8D0F7510037536
:103330001100751200780C79101215417510FF7587
:1033400011FF7512FF780C79101215A28E828F83EF
:10335000A3A3780C1215EA850882850983A3A375B7
:103360000CF1750DFF750EFF750FFF780C121554DB
:10337000780C1219A28E828F83A3A3C082C083907F
:103380000832E0F50CA3E0F50DE4F50EF50FD0835F
:10339000D082780C121554AA0CAB0DAC0EAD0F12E6
:1033A000263D7404121739E9701F8E828F83A3A300
:1033B000C082C083900832E0F508A3E0F509E4F587
:1033C0000AF50BD083D0828014850882850983A3F7
:1033D000A37508F17509FF750AFF750BFF780812D0
:1033E0001554750CFF750DFF750EFF750F007808ED
:1033F000790C1215A202379890084CE0F9120AAE27
:10340000E50C6012900846E0F8A3E0F9A3E06870CC
:1034100003A3E0697036120CB28A0C8B0D8C0E8DF2
:103420000F751003751100751200780C79101215C4
:10343000417510FF7511FF7512FF780C7910121588
:10344000A28E828F83A3A3780C1215EA8508828549
:103450000983A3A3750CF1750DFF750EFF750FFFA2
:10346000780C121554780C1219A28E828F83A3A3A4
:10347000C082C083900848E0F50CA3E0F50DE4F5A8
:103480000EF50FD083D082780C121554AA0CAB0D18
:10349000AC0EAD0F12263D7404121739E9701F8E61
:1034A000828F83A3A3C082C083900848E0F508A35D
:1034B000E0F509E4F50AF50BD083D0828014850885
:1034C00082850983A3A37508F17509FF750AFF7545
:1034D0000BFF7808121554750CFF750DFF750EFF64
:1034E000750F007808790C1215A2023867E510658F
:1034F0000E7004E511650F70030235BD850E8285DF
:103500000F83A3A3A3E070030235A1850E82850F6C
:1035100083A3A3A3A3E0F875F08AA4C8AAF02AF9AC
:10352000742428FE740939FFEEFAEFFB120C5EEEEC
:10353000FAEFFB120C58750A80750B00780A121905
:10354000A67C007D60EE2406FAEF3401FB120B9E90
:103550007402121739906195E0C0E0EE2486F5827E
:10356000EF3401F583D0E0F0906196E0C0E0EE2406
:1035700087F582EF3401F583D0E0F0906197E0C0E9
:10358000E0EE2488F582EF3401F583D0E0F090611D
:1035900098E0C0E0EE2489F582EF3401F583D0E0B5
:1035A000F0E5102404FEE5113400FF8E828F83E0E5
:1035B000F9120C6A8E828F83E09004ADF07902904C
:1035C00004ADE0FA75F005A4CAA8F028FB74AF2A90
:1035D000FA74043BFB121ED3AA08AB09023883908D
:1035E00008A8E054077003023886A3E0F9120C34EF
:1035F0008A088B09AE08AF098E828F83E0146010B1
:103600001470030236C924FE70030237AF023886F5
:10361000120A90120CB28A088B098C0A8D0B750C59
:103620000A750D00750E00750F007808790C1215DB
:103630004178081219A28E828F83A3A31215F91262
:10364000263D7404121739E97077120CB28A088B80
:10365000098C0A8D0B750C037808790C12154175CD
:103660000CFF750DFF750EFF7808790C1215A28EF0
:10367000828F83A3A378081215EA90047FE0640286
:10368000702C8E828F83A3A3750800750908750AB4
:103690000078081215547808790C1215A2EE240E41
:1036A000F582EF3400F58378081215EA8013EE24D2
:1036B0000EF582EF3400F58374FFF0A3F0A3F0A3BE
:1036C000F09008A9740102387E120AA8900835E02B
:1036D00064017016900834E070107901120D6612C2
:1036E0000D30120D607900120D6C900830E0F8A3D7
:1036F000E0F9A3E0687003A3E0696037120CB28AB6
:10370000088B098C0A8D0B750C0A750D00750E005F
:10371000750F007808790C12154178081219A28EDD
:10372000828F83A3A31215F912263D740412173950
:10373000E97074EE2402F508EF3400F509120CB2BA
:103740008A0C8B0D8C0E8D0F751003751100751280
:1037500000751300780C79101215417510FF751162
:10376000FF7512FF780C79101215A2850882850961
:1037700083780C1215EA850882850983C082C0838C
:10378000900832E0F508A3E0F509E4F50AF50BD05E
:1037900083D0827808121554EE240EF582EF34009F
:1037A000F58378081215EA9008A9740202387E9011
:1037B000084CE0F9120AAE900846E0F8A3E0F9A33D
:1037C000E0687003A3E0696037120CB28A088B09C5
:1037D0008C0A8D0B750C0A750D00750E00750F00A7
:1037E0007808790C12154178081219A28E828F83FD
:1037F000A3A31215F912263D7404121739E9707645
:10380000EE2402F8EF3400F988088909120CB28A14
:103810000C8B0D8C0E8D0F75100375110075120039
:10382000751300780C79101215417510FF7511FF92
:103830007512FF780C79101215A28508828509830C
:10384000780C1215EA850882850983C082C08390AE
:103850000848E0F508A3E0F509E4F50AF50BD08384
:10386000D0827808121554EE240EF582EF3400F55C
:103870008378081215EA120AB49008A97404F0EECD
:10388000FAEFFB120C287F0C02186574F0121793E4
:10389000EAFEEBFFEE2402F8EF3400F9880889090C
:1038A000EE2406F8EF3400F9880A890B8882F58344
:1038B0001219BD8508828509831215F9120C8E74C0
:1038C00002121739850A82850B831219BD85088279
:1038D0008509831215F9120C827402121739EE242D
:1038E0000EF582EF3400F5831215F9120C948E82D6
:1038F0008F83E06440701CEE2412F8EF3400F988E6
:10390000828983E0906064F088828983A3E090607C
:10391000658006906064E4F0A3F09008AAEEF0A33E
:10392000EFF0EE2416F582EF3400F583E0F8A3E023
:10393000F5838882121791906054E4F0A3F0A3F00D
:10394000A3F0A3F0A3F0A3F0A3F0A3F0A3F0A3F0DF
:10395000A3F0906182E0C2E6F07591BFEE2415F508
:1039600082EF3400F583E064017003120CCAE5E1D4
:1039700070FCEE2414F582EF3400F583E0F460036C
:10398000E0F5E1EE2415F582EF3400F5837401F0E3
:10399000900485E064017073120CB28A088B098C64
:1039A0000A8D0B78081219A28E828F83A3A3121599
:1039B000F912269674041217398A088B098C0A8D1D
:1039C0000B750C05750D00750E00750F00780879E4
:1039D0000C12141A74037808121509E50824F4F57A
:1039E00008E5093401F509900852E06003121294C9
:1039F000E4F50AF50B78081219A27A207B009004EE
:103A00007EE0F912134274041217397F0802186518
:103A100074EA121793EAFEEBFF8C148D15EE4F70CB
:103A200003023B2C120CB28A088B098C0A8D0B7591
:103A30000C01750D00750E00750F007808790C12D9
:103A40001541750CFF750DFF750EFF7808790C1286
:103A500015A28E828F83E064027014900830E0F823
:103A6000A3E0F9A3E0687003A3E06970248017E085
:103A70006404701D900846E0F8A3E0F9A3E06870C4
:103A800003A3E069700B8E828F83A3A378081215BD
:103A9000EA75101A75110075120075130078081276
:103AA00019A2851482851583A3A31215F9122696EF
:103AB00074041217398A0C8B0D8C0E8D0F781079C7
:103AC0000C1213DB4066851482851583A3A3750C45
:103AD000E7750DFF750EFF750FFF780C1215547802
:103AE0000C1219A28E828F83A3A31215F912263D00
:103AF0007404121739E97034750C07750D00750ED2
:103B000000750F007808790C12154178081219A277
:103B10008E828F83A3A31215F912263D7404121707
:103B200039E97004790080067901800279027F0EFC
:103B300002186574F0121793890874FF6508600312
:103B4000023CC19008A8E05407700302419D7A002E
:103B500078A7790888828983A3A3A3A3A3E0640438
:103B6000703FEA75F018A4F8A9F074AD28F58274D6
:103B70000839F583E0640170377A0078A7790888FE
:103B8000828983A3A3A3A3A3E064046003023C1679
:103B900088828983A3A3A3A3A3A3E0640170778091
:103BA000630AE82418F8E93400F9EAC3940540A44C
:103BB0007A0078A7790888828983A3A3A3A3A3E0C6
:103BC00064017067EA75F018A4F8A9F074AD28F5DF
:103BD00082740839F583E0640170627A0078A7790D
:103BE0000888828983A3A3A3A3A3E06401600302DE
:103BF0003C9D88828983A3A3A3A3A3A3E06401605F
:103C000003023C9DEA75F018A4F8A9F074AC28FAF8
:103C100074083902419A0AE82418F8E93400F9EAEC
:103C2000C394055003023B7F02419D0AE82418F823
:103C3000E93400F9EAC394055003023BB67A0078F0
:103C4000A7790888828983A3A3A3A3A3E064027051
:103C500061EA75F018A4F8A9F074AD28F58274082B
:103C600039F583E0640170597A0078A77908888271
:103C70008983A3A3A3A3A3E06402707A88828983C3
:103C8000A3A3A3A3A3A3E06401706BEA75F018A437
:103C9000F8A9F074AC28FA740839FB806F0AE8249C
:103CA00018F8E93400F9EAC394055003023BE10235
:103CB000419D0AE82418F8E93400F9EAC394054064
:103CC000827A0078A7790888828983A3A3A3A3A313
:103CD000E06508703A88828983A3A3A3A3A3A3E025
:103CE0006401702BEA75F018A4F8A9F074AC28FEF2
:103CF000740839FF802C0AE82418F8E93400F9EA3E
:103D0000C394055003023C6E7A007B000241A10A75
:103D1000E82418F8E93400F9EAC3940540A97E00C4
:103D20007F007A0078A7790888828983A3A3A3A358
:103D3000A3E06508701BEA75F018A4F8A9F074AD4B
:103D400028F582740839F583E0640170137A0180E4
:103D5000110AE82418F8E93400F9EAC3940540C8C8
:103D60007A00E508146010147003023ED824FE7037
:103D700003023FEB02419D7B0078A7790888828986
:103D800083A3A3A3A3A3E064027052EB75F018A46D
:103D9000F8A9F074AD28F582740839F583E0640160
:103DA000704A7B0078A7790888828983A3A3A3A39C
:103DB000A3E064026003023E4688828983A3A3A332
:103DC000A3A3A3E06401707EEB75F018A4F8A9F03A
:103DD00074AC28F50A740839F50B023E5E0BE82432
:103DE00018F8E93400F9EBC3940540917B0078A7FB
:103DF000790888828983A3A3A3A3A3E06404600352
:103E0000023E9FEB75F018A4F8A9F074AD28F58276
:103E1000740839F583E064016003023EB17B0078E9
:103E2000A7790888828983A3A3A3A3A3E06404607D
:103E300003023EBC88828983A3A3A3A3A3A3E06457
:103E400001707902403F0BE82418F8E93400F9EBDF
:103E5000C394055003023DA8750A00750B00EAA241
:103E6000E05035850A82850B83A3A3750CF6750D8A
:103E7000FF750EFF750FFF780C121554780C121990
:103E8000A28E828F83A3A31215F912263D74041209
:103E90001739E97003024197AA0AAB0B0241A10B43
:103EA000E82418F8E93400F9EBC394055003023D07
:103EB000F2EAA2E0501BEEFAEFFB80190BE824189F
:103EC000F8E93400F9EBC394055003023E230240A5
:103ED000E47A007B000241A17B0078A77908888200
:103EE0008983A3A3A3A3A3E064047040EB75F01837
:103EF000A4F8A9F074AD28F582740839F583E0645C
:103F00000170387B0078A7790888828983A3A3A3EE
:103F1000A3A3E064046003023F9D88828983A3A376
:103F2000A3A3A3A3E06401707402403F0BE824182C
:103F3000F8E93400F9EBC3940540A37B0078A77936
:103F40000888828983A3A3A3A3A3E064017063EB21
:103F500075F018A4F8A9F074AD28F582740839F545
:103F600083E06401705B7B0078A77908888289838D
:103F7000A3A3A3A3A3E06401705288828983A3A3AF
:103F8000A3A3A3A3E064017043EB75F018A4F8A900
:103F9000F074AC28F50A740839F50B80440BE8245A
:103FA00018F8E93400F9EBC394055003023F090205
:103FB00040E40BE82418F8E93400F9EBC394054019
:103FC00080EAA2E0501EEEFAEFFB801C0BE82418FA
:103FD000F8E93400F9EBC394054091750A00750BBC
:103FE000000240EA7A007B000241A17B0078A779B9
:103FF0000888828983A3A3A3A3A3E064017055EB7F
:1040000075F018A4F8A9F074AD28F582740839F594
:1040100083E06401704D7B0078A7790888828983EA
:10402000A3A3A3A3A3E0640160030240D288828912
:1040300083A3A3A3A3A3A3E0640160030240D2EB84
:1040400075F018A4F8A9F074AC28F50A740839F5CD
:104050000B0240EA0BE82418F8E93400F9EBC394AA
:1040600005408E7B0078A7790888828983A3A3A363
:10407000A3A3E064026003024129EB75F018A4F8E1
:10408000A9F074AD28F582740839F583E064016005
:104090000302413B7B0078A7790888828983A3A328
:1040A000A3A3A3E06402600302414288828983A340
:1040B000A3A3A3A3A3E064016003024142EB75F054
:1040C00018A4F8A9F074AC28F50A740839F50B02A5
:1040D000415A0BE82418F8E93400F9EBC394055071
:1040E0000302401C750A00750B00EAA2E0400302BF
:1040F0003E98850A82850B83A3A3750CF6750DFF88
:10410000750EFF750FFF780C121554780C1219A25A
:104110008E828F83A3A31215F912263D7404121701
:1041200039E96003023E98806E0BE82418F8E93400
:1041300000F9EBC394055003024069EAA2E0505D28
:1041400080550BE82418F8E93400F9EBC3940550C6
:104150000302409A750A00750B00EAA2E0400302D0
:104160003E98850A82850B83A3A3750CF6750DFF17
:10417000750EFF750FFF780C121554780C1219A2EA
:104180008E828F83A3A31215F912263D7404121791
:1041900039E96003023E98EEFAEFFB80047A007B77
:1041A00000023A0B74F6121793890975080078A774
:1041B000790888828983A3A3A3A3A3A3E060030251
:1041C0004280E50875F018A4F8A9F074AC28FE74D4
:1041D0000839FF8E828F83A37401F08E828F83E56E
:1041E00009F0120CB28E828F83A3A31216058E8261
:1041F0008F83A3A3A3A3A3A3E4F0A3F0EE240EF55F
:1042000082EF3400F58374FFF0A3F0A3F0A3F0EE87
:104210002414F582EF3400F5837401F0EE2415F5D3
:1042200082EF3400F5837401F0EE2416F582EF344A
:1042300000F583E4F0A3F09008A8E04509F09008A9
:10424000A7E004F06401600C7480650960067440A6
:1042500065097019E50875F018A4F8A9F074AC2880
:10426000F8740839F99008AAE8F0A3E9F0E50875B0
:10427000F018A4F8A9F074AC28FA740839FB801877
:104280000508E82418F8E93400F9E508C394055056
:10429000030241B27A007B0080007F02021865C0F1
:1042A00082C0838A828B83E0F8A3E0F98A828B83C1
:1042B000E4F0A3F088828983A3F088828983E0F404
:1042C000F89008A8E058F09008A7E014F0700B9060
:1042D00008AAE4F0A3F090047FF0801CC082C083A1
:1042E0009008A7E0600A9008AAE0FAA3E0FB800427
:1042F0007A007B008002E0F9D083D082020132C0D4
:1043000082C083E9FB7A0078A7790888828983A331
:10431000A3A3A3A3E06B7016EA75F018A4F8A9F0A4
:1043200074AD28F582740839F583E0F980110AE844
:104330002418F8E93400F9EAC3940540CE790080E6
:10434000B7C082C0839008A70242F674F612179392
:10435000EAFEEBFF9061D0E0C0E0EE2400F582EFD2
:104360003401F583D0E0F09061D7E0F89061D5E0BA
:10437000C398547FC0E0EE2401F582EF3401F58349
:10438000D0E0F09061D6E0C398547FC0E0EE240204
:10439000F582EF3401F583D0E0F0701A9061C5E04A
:1043A000A2E45012E0A2E7500DEE2402F582EF34B1
:1043B00001F5837480F0120D90EE2401F582EF3444
:1043C00001F583E07034EE2402F582EF3401F583C9
:1043D000E070279061C5E0A2E4501FE0A2E7501A08
:1043E000EE2402F582EF3401F5837480F0EE2401AF
:1043F000F582EF3401F5837480F075E1957800EE75
:104400002400F582EF3401F583E060279061D3E06A
:10441000C0E08808EE2508F582EF3400F583D0E08F
:10442000F008EE2400F582EF3401F583E0F9E8C3EB
:104430009940D975E19102429A74F6121793EAFEF7
:10444000EBFF9061C8E0C0E0EE2403F582EF340199
:10445000F583D0E0F09061CFE0F89061CDE0C398B3
:10446000547FC0E0EE2404F582EF3401F583D0E000
:10447000F09061CEE0C398547FC0E0EE2405F58251
:10448000EF3401F583D0E0F0701A9061C5E0A2E04E
:104490005012E0A2E3500DEE2405F582EF3401F551
:1044A000837480F0120D96EE2404F582EF3401F54A
:1044B00083E07034EE2405F582EF3401F583E0707B
:1044C000279061C5E0A2E0501FE0A2E3501AEE245D
:1044D00005F582EF3401F5837480F0EE2404F58253
:1044E000EF3401F5837480F0120D9C7A00EE240302
:1044F000F582EF3401F583E0602F9061CBE0C0E0FE
:104500008A08EE2508F8EF3400F9E82480F582E9FE
:104510003400F583D0E0F00AEE2403F582EF340195
:10452000F583E0F8EAC39840D175E18102429A74BC
:10453000F41217938908A808E875F08AA4C8AAF0AD
:104540002AF9742428FE740939FFEEFAEFFB120CE5
:104550005EEEFAEFFB120C58750A80750B00780AB4
:104560001219A67C007D60EE2406FAEF3401FB12DE
:104570000B9E7402121739906195E0C0E0EE24861C
:10458000F582EF3401F583D0E0F0906196E0C0E071
:10459000EE2487F582EF3401F583D0E0F090619747
:1045A000E0C0E0EE2488F582EF3401F583D0E0F03E
:1045B000906198E0C0E0EE2489F582EF3401F58344
:1045C000D0E0F07F0402186574F21217938908A8EE
:1045D00008E875F08AA4C8AAF02AF9742428F874A7
:1045E0000939F99061C6E0FDE054F0F075E1817C95
:1045F00000E82403F582E93401F583E0602B8C0A9E
:10460000E8250AFAE93400FBEA2480F582EB34005D
:10461000F583E09061CAF00CE82403F582E93401E7
:10462000F583E0FAECC39A40D5E82405F582E93435
:1046300001F583E060049061CEF0E82404F582E99E
:104640003401F583E060049061CDF0ED9061C6F037
:10465000A808E875F08AA4C8AAF02AF9742428F8F2
:10466000740939F9E0FCE0540FF075E1917A00E843
:104670002400F582E93401F583E060238A0AE82505
:104680000AF582E93400F583E09061D2F00AE8246B
:1046900000F582E93401F583E0FBEAC39B40DDE8E5
:1046A0002402F582E93401F583E060049061D6F0DC
:1046B000E82401F582E93401F583E060049061D5D6
:1046C000F0EC9061C6F0850882AE82EEF875F08A53
:1046D000A4C8AAF02AF9742428F50A740939F50B3C
:1046E000750C80750D00780C1219A6E50A2406FCDD
:1046F000E50B3401FD7A007B60120B9E74021217E9
:1047000039A80AA90BE82486F582E93401F583E08B
:10471000906195F0E82487F582E93401F583E09013
:104720006196F0E82488F582E93401F583E0906130
:1047300097F0E82489F582E93401F583E0906198E7
:10474000F0EE75F005A4CEA8F028FF74AF2EF58228
:1047500074043FF583E0F8A3E0F5838882E0648089
:1047600070419010CD74E0F0A3740BF0A374C8F006
:10477000A3740BF0A374E0F0A3740BF0A374E0F047
:10478000A3740BF0A374C8F0A3740BF0A374E0F04F
:10479000A3740BF0A374E6F0A3740BF090047F7481
:1047A00008800590047F7407F09010DB74C8F0A3B4
:1047B000740BF0A374C8F0A3740BF0A374C8F0A337
:1047C000740BF0A374C8F0A3740BF0A374C8F0A327
:1047D000740BF0A374C8F0A3740BF07F0602186585
:1047E000C082C0839061907404F0A37448F0A374F5
:1047F00002F09061807440F09061BC7403F09061AD
:10480000877419F0906265741BF0906249E0C3945C
:104810001390619C400A7409F090606674018007EF
:10482000740DF0906066E4F090619A7433F0A374B4
:1048300055F09061A0743AF0900850E0640170095E
:10484000C291900483746780059004837461F09032
:104850002776E493906186F0902770E493F46027C4
:10486000E493540FF8906185E0686012E5C65480C7
:104870004449F5C6E59E547F644970F8E8F053C694
:1048800080E59E547F70FA7905120D8A024C91C022
:1048900082C083E9540FF9906185E0696012E5C632
:1048A00054804449F5C6E59E547F644970F8E9F0A8
:1048B00053C680E59E547F70FA024C91C082C0833B
:1048C000E5A8F853A87E906181E4F0A3F0A3F0C2BC
:1048D000BA539AFEC289759B00C2C275E9007591F0
:1048E0000075BF0075A91175B905906181F0A374B9
:1048F000C0F0A3E4F0D2BA439A0174805842A802EF
:104900004C91F0A3F0024C91C082C08374F812174E
:1049100023900481E0F8A3E0F9E8497003024A36E5
:10492000900481E0544060237908851882851983BA
:10493000AA82AB83120B80851882851983AA82AB69
:104940008312085C900481E054BFF0E05480601052
:10495000790C7A767B08120B80900481E0547FF00A
:10496000E0A2E0503190619A7433F0A37455F09056
:1049700061A0743AF0900850E064017009C291900F
:104980000483746780059004837461F01208629058
:104990000481E054FEF0E05402603190619A743F6B
:1049A000F0A3745AF09061A0747FF0900850E06416
:1049B000017009D29190048374718005900483740E
:1049C0006AF0120862900481E054FDF0E054046043
:1049D00013902774E493906186F012086890048124
:1049E000E054FBF0E054086013902775E493906165
:1049F00086F0120868900481E054F7F0E0541060EB
:104A000013902776E493906186F0120868900481F1
:104A1000E054EFF0E05420600A120868900481E04E
:104A200054DFF0A3E05401600D120A8412086E9066
:104A30000482E054FEF07408121739024C9174ECB1
:104A400012179374F4121723851882851983AC8288
:104A5000AD83758382758274740412163690277440
:104A600093F46003024BCA907808E0C394025003A9
:104A7000024BAA740412176FAC82AD8375838275E2
:104A8000821774081216368518828519838582125A
:104A9000858313740412176FAC82AD83750EFF7596
:104AA0000FFF7FFF7E00750C48750D788015740828
:104AB0006E7003024B3E74096E7003024B3E740A23
:104AC0006E607B850C82850D8378081215DB8C82E5
:104AD0008D83A909E50AC9F8881074187808121599
:104AE00009E5104508F8C3E098A3E099850C828594
:104AF0000D8378081215DB40188C828D837418782A
:104B000008121509E5104508F8E0C398F8A3E080FD
:104B10001C74187808121509E5104508FAE9FB8C91
:104B2000828D83E0F8A3E0F9EAC398F8EB99F9C322
:104B3000E8950EE9950F5006880E890FEEFF0EE5F9
:104B40000C2404F50CE50D3400F50DEEC394135060
:104B500003024AAE74FF650E700474FF650F602394
:104B60008F087402780812171074482508F58274AB
:104B7000783509F58378081215DB85128285138351
:104B8000E508F0EC2402FCED3400FD85128285136B
:104B900083A3858212858313740C12176FE5826CD0
:104BA0007003E5836D6003024A9C75080175090076
:104BB00078081219A6740212176FAC82AD837ADDE1
:104BC0007B091210E47402121739740C1217397F22
:104BD0000C021865C082C0839061AE7468F0A37443
:104BE0006AF090624574FBF0A304F053F4FD43FEB9
:104BF000029008507401F09061A0E0643A90619ACC
:104C000070237433F0A37455F09061A0743AF0747B
:104C10000164017009C29190048374678028900434
:104C20008374618021743FF0A3745AF09061A07482
:104C30007FF0740164017009D291900483747180D3
:104C400005900483746A024904C082C08390082ED0
:104C5000E064017011900834E064016027E07006A0
:104C6000A3E06401601E900845E0640170089008AC
:104C70004BE06401600E9007D8E06401700A900771
:104C8000DDE06004790C800279008005E0F91226ED
:104C9000EBD083D082020132C082C08375E1F190F3
:104CA00007DBE024FE6051147053120A969007D17E
:104CB000E0F97AD27B07120CD67AD67BBE7C897D4E
:104CC0008E120D247A557B557C557D00120CE29096
:104CD00007DCE0F9120CEE7901120D7E9007CFE0AF
:104CE000F8A3E0C82416F582E83400F58374BAF01E
:104CF000A3740AF079008099120A9C80B07912801E
:104D0000F574F71217939007E1E02407F5D990079F
:104D1000D1E0C4333354C04402F5D978CF79078841
:104D2000828983A3A3A3E0F5D988828983A3A8827B
:104D3000A983E864D57003E9640770E39007E1E0B4
:104D4000601F78CF7907FAE82413F582E93400F57B
:104D500083E0F5D988828983A3A882A9831AEA709F
:104D6000E675E1959010CD745AF0A3740AF0A3741F
:104D70005AF0A3740AF0A3745AF0A3740AF0A3744F
:104D80005AF0A3740AF0A3745AF0A3740AF0A3743F
:104D90005AF0A3740AF0A37460F0A3740AF09010A0
:104DA000DB74C8F0A3740BF0A374C8F0A3740BF009
:104DB000A374C8F0A3740BF0A374C8F0A3740BF031
:104DC000A374C8F0A3740BF0A374C8F0A3740BF021
:104DD0009007CFE0F8A3E0C8240EF582E83400F590
:104DE0008374FFF0A3F0A3F0A3F09007CFE0F8A343
:104DF000E0C82414F582E83400F5837414F09004BC
:104E00007F7404F002593D74F71217939007E1E0A4
:104E10002407F5D99007D1E0C4333354C04406F5D4
:104E2000D978CF790788828983A3A3A3E0F5D988AD
:104E3000828983A3A882A983E864D57003E9640703
:104E400070E39007E1E0601F78CF7907FAE8241358
:104E5000F582E93400F583E0F5D988828983A3A837
:104E600082A9831AEA70E6900801E02407F5D99038
:104E700007D1E0C4333354C04404F5D978CF79075F
:104E800088828983A3A3A3E0F5D988828983A3A814
:104E900082A983E864D57003E9640770E390080190
:104EA000E0601F78CF7907FAE82433F582E934000F
:104EB000F583E0F5D988828983A3A882A9831AEAB9
:104EC00070E675E1959010CD7454F0A3740AF0A3C8
:104ED00074C8F0A3740BF0A374C8F0A3740BF0A310
:104EE00074C8F0A3740BF0A374C8F0A3740BF0A300
:104EF00074C8F0A3740BF0A37460F0A3740AF0906C
:104F000010DB74C8F0A3740BF0A374C8F0A3740B87
:104F1000F0A374C8F0A3740BF0A374C8F0A3740BCF
:104F2000F0A374C8F0A3740BF0A374C8F0A3740BBF
:104F3000F09007CFE0F8A3E0C8240EF582E8340033
:104F4000F58374FFF0A3F0A3F0A3F09007CFE0F88F
:104F5000A3E0C82414F582E83400F5837415F090BA
:104F6000047F7403F002593DC082C08390083874F6
:104F700025F09008367401F0A3E4F07A01FB120DDD
:104F800000900824E0F8A3E0C82416F582E8340075
:104F9000F58374C0F0A3740AF0900835E0640170E2
:104FA00016900834E070107901120D66120D30125F
:104FB0000D607900120D72024C91C082C08374FAA8
:104FC00012172390082DE064017008120AA29008BD
:104FD0002DE4F075E1F1900824E0F8A3E0C8241571
:104FE000F582E83400F5837401F090082FE0640145
:104FF0007076908226C082851882851983AC82AD36
:1050000083758382D082740612163675D90D900886
:1050100026E0C4333354C04403F5D9782479088892
:10502000828983A3A3A3E0F5D988828983A3A88278
:10503000A983E8642A7003E9640870E3851882850F
:105040001983A882A98388828983E0F5D9A3A882DD
:10505000A983740612176FE582687003E58369708F
:10506000E575E195790180027900120D069010CD69
:1050700074FEF0A3740BF0A37404F0A3740CF0A3FB
:1050800074FEF0A3740BF0A374FEF0A3740BF0A3F2
:1050900074C8F0A3740BF0A374C8F0A3740BF0A34E
:1050A000740AF0A3740CF09010DB74C8F0A3740BB6
:1050B000F0A374C8F0A3740BF0A374C8F0A3740B2E
:1050C000F0A374C8F0A3740BF0A374C8F0A3740B1E
:1050D000F0A374C8F0A3740BF0900826E0F97A27C7
:1050E0007B08120CD6900838E0F91226EB790112F1
:1050F0000D0C7AD67BBE7C897D8E120D247A557B71
:10510000557C557D00120CE27900120D7E9008242A
:10511000E0F8A3E0C82414F582E83400F58374169F
:10512000F090047F7405F004024A3874F712179364
:105130008908A808E875F005A4C8AAF02AF974AF90
:1051400028FE740439FF90083DE0F97A3E7B08128E
:105150000CD690084BE0701A7900120D489007BEEB
:10516000E070047900800279017ABF7B07120CDCC1
:1051700080057901120D4875E1F175D92390083D3C
:10518000E0C4333354C04405F5D9783B79088882AC
:105190008983A3A3A3E0F5D988828983A3A882A9E0
:1051A00083E864417003E9640870E375D90075D938
:1051B0000075D90075D90075D90075D900EEF8EFE2
:1051C000F9E82404FAE93400FBE82422F582E93402
:1051D00000F583E0F5D988828983A3A882A983EAB0
:1051E000687002EB6970E2EEF8EFF9E824031AE95F
:1051F0003400FBE82426F582E93400F583E0F5D994
:1052000088828983A3A882A983EA687002EB697007
:10521000E2EE242BF582EF3400F583E0F5D9EE249D
:105220002CF582EF3400F583E0F5D9EE242DF582DC
:10523000EF3400F583E0F5D9EE242EF582EF34004B
:10524000F583E0F5D9EE242FF582EF3400F583E005
:10525000F5D9EE2430F582EF3400F583E0F5D9EE90
:105260002431F582EF3400F583E0F5D9EE2432F5F0
:1052700082EF3400F583E0F5D9EE2433F582EF3484
:1052800000F583E0F5D9EEF8EFF9E82405FAE93402
:1052900000FBE8245DF582E93400F583E0F5D98868
:1052A000828983A3A882A983EA687002EB6970E20D
:1052B000EE2437F582EF3400F583E0541FF8EE2436
:1052C0002AF582EF3400F583E0C43354E048F5D981
:1052D00075E1959010CD74CEF0A3740BF0A374D447
:1052E000F0A3740BF0A374C8F0A3740BF0A374C8FC
:1052F000F0A3740BF0A374C8F0A3740BF0A374C8EC
:10530000F0A3740BF0A374DAF0A3740BF09010DB2D
:1053100074C8F0A3740BF0A374C8F0A3740BF0A3CB
:1053200074C8F0A3740BF0A374C8F0A3740BF0A3BB
:1053300074C8F0A3740BF0A374C8F0A3740BF090BE
:10534000084AE0F91226EB7AD67BBE7C897D8E1264
:105350000D247A557B557C557D00120CE290600D32
:10536000E4F07901120D7E90047F7406F002593D3D
:1053700074E812179390083BE0F8A3E0F583888265
:10538000A3A3780C1215DB90084CE0FAF875F00531
:10539000A4C8ACF02CF974DD28F582740439F583C7
:1053A000E0FEA3E0FFEEC333FEEF33FF8E14F515EE
:1053B000751600751700850C08850D09850E0A8580
:1053C0000F0B751004751100751200751300780825
:1053D000791012154178081219A2850C08850D095B
:1053E000850E0A850F0B78087914121541780C790F
:1053F0001412149AE4F516F5177808791412157A30
:105400008A0C750D007403780C121710E50D339596
:10541000E0F50EF50F7808790C121541750CFF7543
:105420000DFF750EFF7808790C1215A2AA08AB09BA
:10543000AC0A7D0012269674041217398A088B096B
:10544000A808A909C3EE98EF995006E82EF8E93F9D
:10545000F9E890600EF0E9A3F0EEA3F0EFA3F0906E
:10546000600D74C1F07F10021865C082C083900780
:10547000CFE0F8A3E0C82406F582E83400F583E421
:10548000024902C082C083900824E0F8A3E0C82447
:1054900006F582E83400F583E4F0A3F090083802C2
:1054A0004C8CC082C08390083BE0F8A3E0C824067F
:1054B000F582E83400F583E4F0A3F090084A024C4A
:1054C0008C02013274F61217939061D0E0F8748068
:1054D000C398FCEA2482F582EB3400F583E0600493
:1054E000780480027800E8240EF8ECC39850030298
:1054F00055F07C0C900856E4F0EA2476F582EB3403
:1055000000F583E0900857F0EA2477F8EB3400F9CF
:1055100088828983E0900858F088828983A3E0908C
:105520000859F0EA2479F8EB3400F988828983E09D
:1055300090085AF088828983A3E090085BF0EA24FF
:105540007BF8EB3400F988828983E090085CF0886E
:10555000828983A3E090085DF0EA247DF8EB3400B3
:10556000F988828983E090085EF088828983A3E0CD
:1055700090085FF0EA2474F8EB3400F98A828B8398
:10558000A3A3A3A3A3E0FEA3E0FF88828983E02E68
:10559000F0A3E03FF088828983E0900860F0888281
:1055A0008983A3E0900861F0EA2482F582EB34005D
:1055B000F583E0601775085675090878081219A672
:1055C0007903120BBC74021217397C1074012CF58C
:1055D000D975D903758256758308ECFEE0F5D9A319
:1055E0001EEE70F875E1957904120D2A790180029A
:1055F0007900025AED74F61217939061D0E0F874B6
:1056000080C398FCEA2482F582EB3400F583E060E5
:1056100004780480027800E8240AF8ECC398500368
:105620000256E87508089008567401F07CC57D079D
:10563000785779087E058C828D83E088828983F093
:105640008C828D83A3AC82AD8388828983A3A88258
:10565000A9831EEE70E0EA2480FCEB3400FD8A8210
:105660008B83A3A3A3A3A3E0FEA3E0FF8C828D837F
:10567000E02EF0A3E03FF08C828D83E08882898366
:10568000F08C828D83A3AC82AD8388828983A3084A
:10569000A9838C828D83E088828983F0EA2482F555
:1056A00082EB3400F583E0601A75085675090878B6
:1056B000081219A67C087903120BBC740212173960
:1056C00075080C74012508F5D975D90375825675CE
:1056D0008308AE08E0F5D9A31EEE70F875E1957960
:1056E00004120D2A790180027900025AED74F71232
:1056F0001793EAFEEBFF9061D0E060030257D47588
:10570000D91875D90375D903EEF8EFF9E82408FA2A
:10571000E93400FBE8249BF582E93400F583E0F5E9
:10572000D988828983A3A882A983EA687002EB6979
:1057300070E2EE24A3F582EF3400F583E0F5D9EEB4
:1057400024A4F582EF3400F583E0F5D9EE2493F537
:1057500082EF3400F583E5822408F8E5833400F90C
:10576000E0F5D9A3E865827003E9658370F2EE2461
:1057700087F582EF3400F583E5822404F8E583346D
:1057800000F9E0F5D9A3E865827003E9658370F25A
:1057900075E1957908EE2493FAEF3400FB120B744F
:1057A0007904EE2487FAEF3400FB120B74790412AB
:1057B0000D2AEE246FF582EF3400F583E0F8A3E0C4
:1057C000F9EE2471F582EF3400F583E8F0A3E9F0F7
:1057D00079018002790002593D74F6121793EAFEAE
:1057E000EBFF9008567406F075085675090878089E
:1057F0001219A67C017903120BBC740212173975B9
:10580000D90675D903758256758308E0F5D9A3E5E5
:1058100082645B7004E583640870F075E195900420
:105820007FE06408701EEE246FF582EF3400F5838C
:10583000E0F8A3E0F9EE2471F582EF3400F583E897
:10584000F0A3E9F07901025AED74F6121793EAFE1B
:10585000EBFF9061D0E0705E900856740AF0750816
:105860005675090878081219A67C017903120BBC39
:10587000740212173975D90675D903758256758366
:1058800008E0F5D9A3E582645B7004E583640870E1
:10589000F075E195EE246FF582EF3400F583E0F8C2
:1058A000A3E0F9EE2471F582EF3400F583E8F0A36C
:1058B000E9F0790180027900025AED74F61217932B
:1058C000EAFEEBFF9061D0E07066780190085674B4
:1058D0000BF090047FE0640770197508567509088D
:1058E00078081219A67C017903120BBC74021217F6
:1058F000397805740128F5D975D9037582567583F1
:1059000008E8FAE0F5D9A31AEA70F875E195EE24F3
:105910006FF582EF3400F583E0F8A3E0F9EE24712F
:10592000F582EF3400F583E8F0A3E9F07901800215
:105930007900025AEDF0EEA2E092AF79007F010209
:10594000186574F6121793EAFEEBFF9061D0E0F849
:105950007480C398FAEE2482F582EF3400F583E078
:105960006004780480027800E8240BF8EAC39850B9
:1059700003025A187D099008567408F0EE24E4F8E2
:10598000EF3400F97A577B087C0888828983E08AA3
:10599000828B83F088828983A3A882A9838A828BE1
:1059A00083A3AA82AB831CEC70E0EE2482F582EF25
:1059B0003400F583E0601D750856750908780812F3
:1059C00019A67C097903EEFAEFFB120BBC740212E4
:1059D00017397D0D74012DF5D975D903758256756A
:1059E00083088D08E0F5D9A31508E50870F675E180
:1059F000957904120D2AEE246FF582EF3400F583B9
:105A0000E0F8A3E0F9EE2471F582EF3400F583E8C5
:105A1000F0A3E9F0790180027900025AED74F612E0
:105A20001793EAFEEBFF9061D0E0F87480C398FA18
:105A3000EE2482F582EF3400F583E0600478048080
:105A4000027800E82408F8EAC3985003025AEB7879
:105A500006900856740CF090049CE0900857F09063
:105A6000049DE0900858F090049EE0900859F09052
:105A7000049FE090085AF09004A0E090085BF0EEDC
:105A80002482F582EF3400F583E0601B75085675BB
:105A9000090878081219A67C067903EEFA120BBCE5
:105AA0007402121739780A740128F5D975D903756B
:105AB00082567583088808E0F5D9A31508E50870B3
:105AC000F675E1957904120D2AEE246FF582EF3414
:105AD00000F583E0F8A3E0F9EE2471F582EF3400DD
:105AE000F583E8F0A3E9F07901800279007F0202F2
:105AF000186574F6121793EAFEEBFF9061D0E0F898
:105B00007480C398FAEE2482F582EF3400F583E0C6
:105B10006004780480027800E82404F8EAC398500E
:105B200003025BCC7802900856E8F0EE24F6F5828A
:105B3000EF3400F583E0900857F0EE2482F582EF11
